{"abi":[{"type":"constructor","inputs":[],"stateMutability":"nonpayable"},{"type":"function","name":"acceptTask","inputs":[{"name":"taskId","type":"uint256","internalType":"uint256"}],"outputs":[],"stateMutability":"nonpayable"},{"type":"function","name":"cancelUnaccepted","inputs":[{"name":"taskId","type":"uint256","internalType":"uint256"}],"outputs":[],"stateMutability":"nonpayable"},{"type":"function","name":"createTask","inputs":[{"name":"operator","type":"address","internalType":"address"},{"name":"token","type":"address","internalType":"contract IERC20"},{"name":"amount","type":"uint256","internalType":"uint256"},{"name":"bond","type":"uint256","internalType":"uint256"},{"name":"deadline","type":"uint64","internalType":"uint64"},{"name":"disputeWindow","type":"uint64","internalType":"uint64"},{"name":"taskRefCid","type":"string","internalType":"string"}],"outputs":[{"name":"taskId","type":"uint256","internalType":"uint256"}],"stateMutability":"nonpayable"},{"type":"function","name":"dispute","inputs":[{"name":"taskId","type":"uint256","internalType":"uint256"}],"outputs":[],"stateMutability":"nonpayable"},{"type":"function","name":"fundTask","inputs":[{"name":"taskId","type":"uint256","internalType":"uint256"}],"outputs":[],"stateMutability":"nonpayable"},{"type":"function","name":"getTask","inputs":[{"name":"taskId","type":"uint256","internalType":"uint256"}],"outputs":[{"name":"task","type":"tuple","internalType":"struct Escrow.Task","components":[{"name":"requester","type":"address","internalType":"address"},{"name":"operator","type":"address","internalType":"address"},{"name":"token","type":"address","internalType":"contract IERC20"},{"name":"amount","type":"uint256","internalType":"uint256"},{"name":"bond","type":"uint256","internalType":"uint256"},{"name":"deadline","type":"uint64","internalType":"uint64"},{"name":"disputeWindow","type":"uint64","internalType":"uint64"},{"name":"status","type":"uint8","internalType":"enum Escrow.Status"},{"name":"artifactHash","type":"bytes32","internalType":"bytes32"},{"name":"manifestHash","type":"bytes32","internalType":"bytes32"},{"name":"attestationId","type":"bytes32","internalType":"bytes32"},{"name":"submittedAt","type":"uint64","internalType":"uint64"}]}],"stateMutability":"view"},{"type":"function","name":"isDisputeWindowActive","inputs":[{"name":"taskId","type":"uint256","internalType":"uint256"}],"outputs":[{"name":"active","type":"bool","internalType":"bool"}],"stateMutability":"view"},{"type":"function","name":"nextTaskId","inputs":[],"outputs":[{"name":"","type":"uint256","internalType":"uint256"}],"stateMutability":"view"},{"type":"function","name":"owner","inputs":[],"outputs":[{"name":"","type":"address","internalType":"address"}],"stateMutability":"view"},{"type":"function","name":"release","inputs":[{"name":"taskId","type":"uint256","internalType":"uint256"}],"outputs":[],"stateMutability":"nonpayable"},{"type":"function","name":"renounceOwnership","inputs":[],"outputs":[],"stateMutability":"nonpayable"},{"type":"function","name":"resolveDispute","inputs":[{"name":"taskId","type":"uint256","internalType":"uint256"},{"name":"operatorWins","type":"bool","internalType":"bool"}],"outputs":[],"stateMutability":"nonpayable"},{"type":"function","name":"submitProof","inputs":[{"name":"taskId","type":"uint256","internalType":"uint256"},{"name":"artifactHash","type":"bytes32","internalType":"bytes32"},{"name":"manifestHash","type":"bytes32","internalType":"bytes32"},{"name":"attestationId","type":"bytes32","internalType":"bytes32"}],"outputs":[],"stateMutability":"nonpayable"},{"type":"function","name":"tasks","inputs":[{"name":"","type":"uint256","internalType":"uint256"}],"outputs":[{"name":"requester","type":"address","internalType":"address"},{"name":"operator","type":"address","internalType":"address"},{"name":"token","type":"address","internalType":"contract IERC20"},{"name":"amount","type":"uint256","internalType":"uint256"},{"name":"bond","type":"uint256","internalType":"uint256"},{"name":"deadline","type":"uint64","internalType":"uint64"},{"name":"disputeWindow","type":"uint64","internalType":"uint64"},{"name":"status","type":"uint8","internalType":"enum Escrow.Status"},{"name":"artifactHash","type":"bytes32","internalType":"bytes32"},{"name":"manifestHash","type":"bytes32","internalType":"bytes32"},{"name":"attestationId","type":"bytes32","internalType":"bytes32"},{"name":"submittedAt","type":"uint64","internalType":"uint64"}],"stateMutability":"view"},{"type":"function","name":"transferOwnership","inputs":[{"name":"newOwner","type":"address","internalType":"address"}],"outputs":[],"stateMutability":"nonpayable"},{"type":"event","name":"OwnershipTransferred","inputs":[{"name":"previousOwner","type":"address","indexed":true,"internalType":"address"},{"name":"newOwner","type":"address","indexed":true,"internalType":"address"}],"anonymous":false},{"type":"event","name":"ProofSubmitted","inputs":[{"name":"taskId","type":"uint256","indexed":true,"internalType":"uint256"},{"name":"artifactHash","type":"bytes32","indexed":false,"internalType":"bytes32"},{"name":"manifestHash","type":"bytes32","indexed":false,"internalType":"bytes32"},{"name":"attestationId","type":"bytes32","indexed":false,"internalType":"bytes32"}],"anonymous":false},{"type":"event","name":"TaskAccepted","inputs":[{"name":"taskId","type":"uint256","indexed":true,"internalType":"uint256"},{"name":"operator","type":"address","indexed":true,"internalType":"address"},{"name":"bond","type":"uint256","indexed":false,"internalType":"uint256"}],"anonymous":false},{"type":"event","name":"TaskCancelled","inputs":[{"name":"taskId","type":"uint256","indexed":true,"internalType":"uint256"}],"anonymous":false},{"type":"event","name":"TaskCreated","inputs":[{"name":"taskId","type":"uint256","indexed":true,"internalType":"uint256"},{"name":"requester","type":"address","indexed":true,"internalType":"address"},{"name":"operator","type":"address","indexed":true,"internalType":"address"},{"name":"token","type":"address","indexed":false,"internalType":"address"},{"name":"amount","type":"uint256","indexed":false,"internalType":"uint256"},{"name":"bond","type":"uint256","indexed":false,"internalType":"uint256"},{"name":"deadline","type":"uint64","indexed":false,"internalType":"uint64"},{"name":"disputeWindow","type":"uint64","indexed":false,"internalType":"uint64"},{"name":"taskRefCid","type":"string","indexed":false,"internalType":"string"}],"anonymous":false},{"type":"event","name":"TaskDisputed","inputs":[{"name":"taskId","type":"uint256","indexed":true,"internalType":"uint256"},{"name":"requester","type":"address","indexed":true,"internalType":"address"}],"anonymous":false},{"type":"event","name":"TaskFunded","inputs":[{"name":"taskId","type":"uint256","indexed":true,"internalType":"uint256"},{"name":"requester","type":"address","indexed":true,"internalType":"address"},{"name":"amount","type":"uint256","indexed":false,"internalType":"uint256"}],"anonymous":false},{"type":"event","name":"TaskReleased","inputs":[{"name":"taskId","type":"uint256","indexed":true,"internalType":"uint256"},{"name":"requester","type":"address","indexed":false,"internalType":"address"},{"name":"operator","type":"address","indexed":false,"internalType":"address"},{"name":"paidAmount","type":"uint256","indexed":false,"internalType":"uint256"},{"name":"bondReturned","type":"uint256","indexed":false,"internalType":"uint256"}],"anonymous":false},{"type":"event","name":"TaskResolved","inputs":[{"name":"taskId","type":"uint256","indexed":true,"internalType":"uint256"},{"name":"operatorWins","type":"bool","indexed":false,"internalType":"bool"},{"name":"toRequester","type":"uint256","indexed":false,"internalType":"uint256"},{"name":"toOperator","type":"uint256","indexed":false,"internalType":"uint256"},{"name":"bondSlashed","type":"uint256","indexed":false,"internalType":"uint256"}],"anonymous":false},{"type":"error","name":"OwnableInvalidOwner","inputs":[{"name":"owner","type":"address","internalType":"address"}]},{"type":"error","name":"OwnableUnauthorizedAccount","inputs":[{"name":"account","type":"address","internalType":"address"}]},{"type":"error","name":"ReentrancyGuardReentrantCall","inputs":[]},{"type":"error","name":"SafeERC20FailedOperation","inputs":[{"name":"token","type":"address","internalType":"address"}]}],"bytecode":{"object":"0x608060405234801561000f575f80fd5b50338061003557604051631e4fbdf760e01b81525f600482015260240160405180910390fd5b61003e81610048565b5060018055610097565b5f80546001600160a01b038381166001600160a01b0319831681178455604051919092169283917f8be0079c531659141344cd1fd0a4f28419497f9722a3daafe3b4186f6b6457e09190a35050565b611c56806100a45f395ff3fe608060405234801561000f575f80fd5b50600436106100f0575f3560e01c806386d6282c11610093578063c746e94c11610063578063c746e94c1461028a578063d1ff21c21461029d578063f2fde38b146102b0578063fdc3d8d7146102c3575f80fd5b806386d6282c146101a45780638d977672146101b75780638da5cb5b1461025d578063955c124714610277575f80fd5b806334b25ee2116100ce57806334b25ee21461015557806337bdc99b14610168578063715018a61461017b57806372f2e78714610183575f80fd5b80631bf6912d146100f45780631d65e77e146101095780632e60cc5914610132575b5f80fd5b610107610102366004611825565b6102cc565b005b61011c610117366004611825565b610454565b6040516101299190611870565b60405180910390f35b610145610140366004611825565b61059e565b6040519015158152602001610129565b610107610163366004611951565b610614565b610107610176366004611825565b610837565b610107610a6c565b6101966101913660046119b2565b610a7f565b604051908152602001610129565b6101076101b2366004611825565b610eaf565b6102456101c5366004611825565b600360208190525f918252604090912080546001820154600283015493830154600484015460058501546006860154600787015460088801546009909801546001600160a01b0397881699968816989790961696949593946001600160401b0380851695600160401b8604821695600160801b900460ff1694939291168c565b6040516101299c9b9a99989796959493929190611a74565b5f546040516001600160a01b039091168152602001610129565b610107610285366004611825565b611047565b610107610298366004611af9565b611243565b6101076102ab366004611825565b6114e3565b6101076102be366004611b28565b611637565b61019660025481565b6102d4611671565b5f81815260036020526040902060018101546001600160a01b0316331461034e5760405162461bcd60e51b815260206004820152602360248201527f4f6e6c792064657369676e61746564206f70657261746f722063616e20616363604482015262195c1d60ea1b60648201526084015b60405180910390fd5b60016005820154600160801b900460ff1660078111156103705761037061183c565b146103bd5760405162461bcd60e51b815260206004820152601d60248201527f5461736b206d75737420626520696e2046756e646564207374617475730000006044820152606401610345565b60058101805460ff60801b1916600160811b1790556004810154156103ff57600481015460028201546103ff916001600160a01b03909116903390309061169b565b336001600160a01b0316827ff7ca920358b7d716f572844484c380d6d3316d36f82c089598e7950b995b9e22836004015460405161043f91815260200190565b60405180910390a35061045160018055565b50565b60408051610180810182525f80825260208201819052918101829052606081018290526080810182905260a0810182905260c0810182905260e081018290526101008101829052610120810182905261014081018290526101608101919091525f8281526003602081815260409283902083516101808101855281546001600160a01b03908116825260018301548116938201939093526002820154909216938201939093529082015460608201526004820154608082015260058201546001600160401b0380821660a0840152600160401b82041660c083015290919060e0830190600160801b900460ff1660078111156105525761055261183c565b60078111156105635761056361183c565b81526006820154602082015260078201546040820152600882015460608201526009909101546001600160401b031660809091015292915050565b5f8181526003602081905260408220906005820154600160801b900460ff1660078111156105ce576105ce61183c565b146105db57505f92915050565b60058101546009820154610602916001600160401b03600160401b90910481169116611b5e565b6001600160401b031642109392505050565b61061c611708565b610624611671565b5f82815260036020526040902060046005820154600160801b900460ff1660078111156106535761065361183c565b146106a05760405162461bcd60e51b815260206004820152601f60248201527f5461736b206d75737420626520696e20446973707574656420737461747573006044820152606401610345565b60058101805460ff60801b1916600760801b1790558115610777576001810154600382015460028301546106e2926001600160a01b0391821692911690611734565b60048101541561071357600181015460048201546002830154610713926001600160a01b0391821692911690611734565b827f9b3ba45cc159f4792e037b3e269d3761453819abf1e05264c26ff85937eb1d9560015f8460040154856003015461074c9190611b85565b6040805193151584526020840192909252908201525f606082015260800160405180910390a2610829565b80546003820154600283015461079b926001600160a01b0391821692911690611734565b6004810154156107d3576107d36107b95f546001600160a01b031690565b600483015460028401546001600160a01b03169190611734565b60038101546004820154604080515f808252602082019490945290810192909252606082015283907f9b3ba45cc159f4792e037b3e269d3761453819abf1e05264c26ff85937eb1d959060800160405180910390a25b5061083360018055565b5050565b61083f611671565b5f81815260036020526040902080546001600160a01b031633146108a55760405162461bcd60e51b815260206004820152601a60248201527f4f6e6c79207265717565737465722063616e2072656c656173650000000000006044820152606401610345565b60036005820154600160801b900460ff1660078111156108c7576108c761183c565b146109145760405162461bcd60e51b815260206004820181905260248201527f5461736b206d75737420626520696e205375626d6974746564207374617475736044820152606401610345565b6005810154600982015461093b916001600160401b03600160401b90910481169116611b5e565b6001600160401b031642106109925760405162461bcd60e51b815260206004820152601a60248201527f446973707574652077696e646f772068617320657870697265640000000000006044820152606401610345565b60058101805460ff60801b1916600560801b1790556001810154600382015460028301546109ce926001600160a01b0391821692911690611734565b6004810154156109ff576001810154600482015460028301546109ff926001600160a01b0391821692911690611734565b8054600182015460038301546004840154604080516001600160a01b03958616815294909316602085015291830152606082015282907f331696bfb20edda2c46a35e13f5060dd6099fd0612c3939371aeaac353ec89c59060800160405180910390a25061045160018055565b610a74611708565b610a7d5f61176a565b565b5f6001600160a01b038916610ad65760405162461bcd60e51b815260206004820152601860248201527f496e76616c6964206f70657261746f72206164647265737300000000000000006044820152606401610345565b6001600160a01b038816610b245760405162461bcd60e51b8152602060048201526015602482015274496e76616c696420746f6b656e206164647265737360581b6044820152606401610345565b5f8711610b735760405162461bcd60e51b815260206004820181905260248201527f416d6f756e74206d7573742062652067726561746572207468616e207a65726f6044820152606401610345565b42856001600160401b031611610bcb5760405162461bcd60e51b815260206004820152601e60248201527f446561646c696e65206d75737420626520696e207468652066757475726500006044820152606401610345565b5f846001600160401b031611610c345760405162461bcd60e51b815260206004820152602860248201527f446973707574652077696e646f77206d7573742062652067726561746572207460448201526768616e207a65726f60c01b6064820152608401610345565b81610c815760405162461bcd60e51b815260206004820152601b60248201527f5461736b207265666572656e63652043494420726571756972656400000000006044820152606401610345565b60028054905f610c9083611b9e565b919050559050604051806101800160405280336001600160a01b031681526020018a6001600160a01b03168152602001896001600160a01b03168152602001888152602001878152602001866001600160401b03168152602001856001600160401b031681526020015f6007811115610d0b57610d0b61183c565b81525f6020808301829052604080840183905260608085018490526080948501849052868452600380845293829020865181546001600160a01b039182166001600160a01b03199182161783559488015160018301805491831691871691909117905592870151600282018054919094169416939093179091558401519181019190915590820151600482015560a082015160058201805460c08501516001600160401b03908116600160401b026fffffffffffffffffffffffffffffffff199092169316929092179190911780825560e0840151919060ff60801b1916600160801b836007811115610e0057610e0061183c565b0217905550610100820151600682015561012082015160078201556101408201516008820155610160909101516009909101805467ffffffffffffffff19166001600160401b039092169190911790556040516001600160a01b038a1690339083907f661587d2a1ada936fc9baaff8ea58b46455411c65253956b2069fe6091eb147690610e9b908d908d908d908d908d908d908d90611bb6565b60405180910390a498975050505050505050565b5f81815260036020526040902080546001600160a01b03163314610f155760405162461bcd60e51b815260206004820152601a60248201527f4f6e6c79207265717565737465722063616e20646973707574650000000000006044820152606401610345565b60036005820154600160801b900460ff166007811115610f3757610f3761183c565b14610f845760405162461bcd60e51b815260206004820181905260248201527f5461736b206d75737420626520696e205375626d6974746564207374617475736044820152606401610345565b60058101546009820154610fab916001600160401b03600160401b90910481169116611b5e565b6001600160401b031642106110025760405162461bcd60e51b815260206004820152601a60248201527f446973707574652077696e646f772068617320657870697265640000000000006044820152606401610345565b60058101805460ff60801b1916600160821b179055604051339083907f4c876e9aba8144edd2840298ef3fd0d8735009124d7a0185a41b12680c093782905f90a35050565b61104f611671565b5f81815260036020526040902080546001600160a01b031633146110b55760405162461bcd60e51b815260206004820152601960248201527f4f6e6c79207265717565737465722063616e2063616e63656c000000000000006044820152606401610345565b5f6005820154600160801b900460ff1660078111156110d6576110d661183c565b1480611101575060016005820154600160801b900460ff1660078111156110ff576110ff61183c565b145b61114d5760405162461bcd60e51b815260206004820152601e60248201527f5461736b206d7573742062652043726561746564206f722046756e64656400006044820152606401610345565b60058101546001600160401b031642116111a95760405162461bcd60e51b815260206004820152601760248201527f446561646c696e6520686173206e6f74207061737365640000000000000000006044820152606401610345565b5f60016005830154600160801b900460ff1660078111156111cc576111cc61183c565b60058401805460ff60801b1916600360811b179055149050801561120e5781546003830154600284015461120e926001600160a01b0391821692911690611734565b60405183907fc6eacc3aa5b2aa77b5a826b832a804ca0b71830ec74f9aa57a15edd978c31ed6905f90a2505061045160018055565b5f84815260036020526040902060018101546001600160a01b031633146112ac5760405162461bcd60e51b815260206004820152601e60248201527f4f6e6c79206f70657261746f722063616e207375626d69742070726f6f6600006044820152606401610345565b60026005820154600160801b900460ff1660078111156112ce576112ce61183c565b1461131b5760405162461bcd60e51b815260206004820152601f60248201527f5461736b206d75737420626520696e20416363657074656420737461747573006044820152606401610345565b60058101546001600160401b03164211156113785760405162461bcd60e51b815260206004820152601e60248201527f5375626d697373696f6e20646561646c696e65206861732070617373656400006044820152606401610345565b836113be5760405162461bcd60e51b8152602060048201526016602482015275105c9d1a599858dd081a185cda081c995c5d5a5c995960521b6044820152606401610345565b826114045760405162461bcd60e51b815260206004820152601660248201527513585b9a59995cdd081a185cda081c995c5d5a5c995960521b6044820152606401610345565b816114515760405162461bcd60e51b815260206004820152601760248201527f4174746573746174696f6e2049442072657175697265640000000000000000006044820152606401610345565b60058101805460ff60801b1916600360801b17905560068101849055600781018390556008810182905560098101805467ffffffffffffffff1916426001600160401b03161790556040805185815260208101859052808201849052905186917fa9dac22b7ae2f31ba050caea7fd630bb17afcfb660526103a91bf21764487680919081900360600190a25050505050565b6114eb611671565b5f81815260036020526040902080546001600160a01b031633146115515760405162461bcd60e51b815260206004820152601760248201527f4f6e6c79207265717565737465722063616e2066756e640000000000000000006044820152606401610345565b5f6005820154600160801b900460ff1660078111156115725761157261183c565b146115bf5760405162461bcd60e51b815260206004820152601e60248201527f5461736b206d75737420626520696e20437265617465642073746174757300006044820152606401610345565b60058101805460ff60801b1916600160801b179055600381015460028201546115f7916001600160a01b03909116903390309061169b565b336001600160a01b0316827f9c49807a23f4d5f56e8d93c1add31e749bd0cdf1025eefe36f906ba31c0dfc68836003015460405161043f91815260200190565b61163f611708565b6001600160a01b03811661166857604051631e4fbdf760e01b81525f6004820152602401610345565b6104518161176a565b60026001540361169457604051633ee5aeb560e01b815260040160405180910390fd5b6002600155565b6040516001600160a01b0384811660248301528381166044830152606482018390526117029186918216906323b872dd906084015b604051602081830303815290604052915060e01b6020820180516001600160e01b0383818316178352505050506117b9565b50505050565b5f546001600160a01b03163314610a7d5760405163118cdaa760e01b8152336004820152602401610345565b6040516001600160a01b0383811660248301526044820183905261176591859182169063a9059cbb906064016116d0565b505050565b5f80546001600160a01b038381166001600160a01b0319831681178455604051919092169283917f8be0079c531659141344cd1fd0a4f28419497f9722a3daafe3b4186f6b6457e09190a35050565b5f8060205f8451602086015f885af1806117d8576040513d5f823e3d81fd5b50505f513d915081156117ef5780600114156117fc565b6001600160a01b0384163b155b1561170257604051635274afe760e01b81526001600160a01b0385166004820152602401610345565b5f60208284031215611835575f80fd5b5035919050565b634e487b7160e01b5f52602160045260245ffd5b6008811061186c57634e487b7160e01b5f52602160045260245ffd5b9052565b81516001600160a01b031681526101808101602083015161189c60208401826001600160a01b03169052565b5060408301516118b760408401826001600160a01b03169052565b50606083015160608301526080830151608083015260a08301516118e660a08401826001600160401b03169052565b5060c083015161190160c08401826001600160401b03169052565b5060e083015161191460e0840182611850565b50610100838101519083015261012080840151908301526101408084015190830152610160928301516001600160401b0316929091019190915290565b5f8060408385031215611962575f80fd5b8235915060208301358015158114611978575f80fd5b809150509250929050565b6001600160a01b0381168114610451575f80fd5b80356001600160401b03811681146119ad575f80fd5b919050565b5f805f805f805f8060e0898b0312156119c9575f80fd5b88356119d481611983565b975060208901356119e481611983565b96506040890135955060608901359450611a0060808a01611997565b9350611a0e60a08a01611997565b925060c08901356001600160401b0380821115611a29575f80fd5b818b0191508b601f830112611a3c575f80fd5b813581811115611a4a575f80fd5b8c6020828501011115611a5b575f80fd5b6020830194508093505050509295985092959890939650565b6001600160a01b038d811682528c811660208301528b166040820152606081018a9052608081018990526001600160401b0388811660a083015287811660c0830152610180820190611ac960e0840189611850565b866101008401528561012084015284610140840152808416610160840152509d9c50505050505050505050505050565b5f805f8060808587031215611b0c575f80fd5b5050823594602084013594506040840135936060013592509050565b5f60208284031215611b38575f80fd5b8135611b4381611983565b9392505050565b634e487b7160e01b5f52601160045260245ffd5b6001600160401b03818116838216019080821115611b7e57611b7e611b4a565b5092915050565b80820180821115611b9857611b98611b4a565b92915050565b5f60018201611baf57611baf611b4a565b5060010190565b6001600160a01b038816815260208101879052604081018690526001600160401b0385811660608301528416608082015260c060a0820181905281018290525f828460e08401375f60e0848401015260e0601f19601f85011683010190509897505050505050505056fea264697066735822122086c6b8296f909680daf231addd5c1a6eca2493e6b27f8bf584708f7d068e918664736f6c63430008180033","linkReferences":{}},"methodIdentifiers":{"acceptTask(uint256)":"1bf6912d","cancelUnaccepted(uint256)":"955c1247","createTask(address,address,uint256,uint256,uint64,uint64,string)":"72f2e787","dispute(uint256)":"86d6282c","fundTask(uint256)":"d1ff21c2","getTask(uint256)":"1d65e77e","isDisputeWindowActive(uint256)":"2e60cc59","nextTaskId()":"fdc3d8d7","owner()":"8da5cb5b","release(uint256)":"37bdc99b","renounceOwnership()":"715018a6","resolveDispute(uint256,bool)":"34b25ee2","submitProof(uint256,bytes32,bytes32,bytes32)":"c746e94c","tasks(uint256)":"8d977672","transferOwnership(address)":"f2fde38b"},"id":31}